:100000000C9434000C943E000C943E000C943E0082
:100010000C943E000C943E000C943E000C943E0068
:100020000C943E000C943E000C943E000C943E0058
:100030000C943E000C943E000C943E000C943E0048
:100040000C943E000C943E000C943E000C943E0038
:100050000C943E000C943E000C943E000C943E0028
:100060000C943E000C943E0011241FBECFEFD8E04C
:10007000DEBFCDBF0E9440000C945A000C940000DB
:10008000809181008560809381001092850010929C
:100090008400559A90E220918400309185002438A4
:1000A0003E41C8F38BB189278BB91092850010921D
:0800B0008400F1CFF894FFCFAA
:00000001FF
